S01900006D6963726F6D6F7573655F766572302E302E737265638E
S113000045C0000060C000005EC000005CC000008D
S11300105AC0000058C0000056C0000054C0000080
S113002052C0000050C000004EC000004CC0000090
S11300304AC000007EC1000046C0000044C0000069
S113004042C0000040C000003EC000003CC00000B0
S11300503AC0000038C0000036C0000034C00000C0
S113006032C0000030C000002EC000002CC00000D0
S11300702AC0000028C0000026C0000024C00000E0
S113008022C0000020C000001EC0000011241FBEBA
S1130090CFEFD0E4DEBFCDBF11E0A0E0B1E0E0E1FE
S11300A0F6E000E00BBF02C007900D92A232B10748
S11300B0D9F721E0A2E2B1E001C01D92A233B20758
S11300C0E1F78DD2A3C29CCF80E882B980E280930D
S11300D07C0083EF91E00197F1F700C0000087EC0A
S11300E080937A00EAE7F0E0808186FDFDCF80917D
S11300F079008093230112B880E482B981E280936D
S11301007C0083EF91E00197F1F700C0000087ECD9
S113011080937A00EAE7F0E0808186FDFDCF80914C
S113012079008093220112B880E282B982E280933E
S11301307C0083EF91E00197F1F700C0000087ECA9
S113014080937A00EAE7F0E0808186FDFDCF80911C
S113015079008093240112B880E182B983E280930C
S11301607C0083EF91E00197F1F700C0000087EC79
S113017080937A00EAE7F0E0808186FDFDCF8091EC
S113018079008093250112B8089580E680937C005D
S113019087E880937A0010927B008FE080937E0042
S11301A0089548B19C01207F342F3F70232B28B938
S11301B0672B21F48E7F992788B902C0816088B9A2
S11301C087E893E10197F1F700C00000419A87E8BE
S11301D093E10197F1F700C0000041980895CF938F
S11301E0DF93EC0160E070E0DCDF60E070E0CE0102
S11301F082959295907F9827807F9827D2DF8FE011
S113020097E20197F1F700C00000DF91CF910895C4
S11302102FE58AEE90E0215080409040E1F700C045
S1130220000060E070E080E390E0BBDF87EA91E6E5
S11302300197F1F700C0000060E070E080E390E017
S1130240B0DF87E893E10197F1F700C0000060E0B8
S113025070E080E390E0A5DF87E893E10197F1F790
S113026000C0000060E070E080E290E09ADF87E880
S113027093E10197F1F700C0000088E290E0AFDF5E
S113028088E090E0ACDF8CE090E0A9DF86E090E0CD
S1130290A6DF82E090E0A3DF81E090E0A0CF0097AA
S11302A021F4CB0180589F4F9ACF019721F4CB01C1
S11302B080549F4F94CF0895CF93DF93EC0161E076
S11302C070E06FDF61E070E0CE0182959295907FDF
S11302D09827807F982765DF89EF90E00197F1F7F1
S11302E000C00000DF91CF910895CF93DF93EC011C
S11302F08881882331F0219690E0DEDF8991811195
S1130300FBCFDF91CF91089583EF84BD82E085BD5B
S113031016BC17BC18BC089583EF8093B00082E02C
S11303208093B1001092B2001092B3001092B40006
S113033008951F920F920FB60F9211240BB60F92CD
S11303402F933F934F935F936F937F938F939F93D9
S1130350AF93BF93EF93FF93B7DEFF91EF91BF91FC
S1130360AF919F918F917F916F915F914F913F9149
S11303702F910F900BBE0F900FBE0F901F901895EA
S1130380209125018DEC289F912D11249695969509
S11303909695990F392F330F330F930F291B209301
S11303A0310120912501289F212D11242695269580
S11303B02695289F912D1124969596959695990F9B
S11303C0392F330F330F930F291B209330012091C2
S11303D0250199E2299F212D112422952F70209324
S11303E02F0130912401389F212D11242695269523
S11303F02695220F422F440F440F240F321B3093B3
S11304002E0130912401389F312D112436953695D3
S11304103695389F212D1124269526952695220F51
S1130420422F440F440F240F321B30932D0120918F
S11304302401299F212D112422952F7020932C0112
S113044030912301389F212D112426952695269538
S1130450220F422F440F440F240F321B30932B01E1
S113046030912301389F312D1124369536953695D8
S1130470389F212D1124269526952695220F422F4B
S1130480440F440F240F321B30932A01209123017F
S1130490299F212D112422952F7020932901309119
S11304A02201389F212D1124269526952695220F69
S11304B0422F440F440F240F321B30932801209104
S11304C02201289F212D1124269526952695289FC3
S11304D0812D1124869586958695880F382F330FA4
S11304E0330F830F281B2093270180912201899FBA
S11304F0912D112492959F7090932601089540DFC9
S113050080E091E0F2DE60E070E081E090E0C7DE40
S11305108091290190E0C096CFDE80912A0190E07D
S1130520C096CADE80912B0190E0C096C5DE64E0DF
S113053070E081E090E0B3DE80912C0190E0C09601
S1130540BBDE80912D0190E0C096B6DE80912E0135
S113055090E0C096B1DE68E070E081E090E09FDE5C
S113056080912F0190E0C096A7DE8091300190E049
S1130570C096A2DE8091310190E0C0969DDE6CE0D1
S113058070E081E090E08BDE8091260190E0C096DF
S113059093DE8091270190E0C0968EDE8091280141
S11305A090E0C09689DE60E070E080E090E077CE75
S11305B022E02093800084E08093810010928500E3
S11305C01092840082E090E09093890080938800E8
S11305D010928B0010928A0020936F000895F89473
S11305E080EF81B912B888E184B987E085B983EFD7
S11305F087B918B880EC8AB98FE08BB909DE84DE3C
S11306008BDED6DFC2DD78947ADFFECFF894FFCF9D
S113061066726F6E74206C656674207269676874A4
S113062000726F7461727920656E636F72646572B3
S10506300000C4
S9030000FC
