S01900006D6963726F6D6F7573655F766572302E302E737265638E
S113000045C0000060C000005EC000005CC000008D
S11300105AC0000058C0000056C0000054C0000080
S113002052C0000050C000004EC000004CC0000090
S11300304AC0000080C1000046C0000044C0000067
S113004042C0000040C000003EC000003CC00000B0
S11300503AC0000038C0000036C0000034C00000C0
S113006033C0000030C000002EC000002CC00000CF
S11300702AC0000028C0000026C0000024C00000E0
S1130080DBC1000020C000001EC0000011241FBE00
S1130090CFEFD0E4DEBFCDBF11E0A0E0B1E0E4E5F6
S11300A0F8E000E00BBF02C007900D92A034B10746
S11300B0D9F721E0A0E4B1E001C01D92AD36B2074A
S11300C0E1F78CD3C5C39CCF1F920F920FB60F924A
S11300D011248F9380914001813059F028F08230AF
S11300E069F08330A1F40FC08091790080934201BC
S11300F00EC0809179008093430109C080917900FA
S11301008093440104C0809179008093410112B826
S1130110809140018F5F8093400180914001843041
S113012011F4109240018F910F900FBE0F901F9009
S11301301895CF93DF93CDB7DEB728970FB6F89411
S1130140DEBF0FBECDBF80E88D8380E18E8380E269
S11301508F8390E49887898381E28A8382E28B8308
S113016083E28C8380914001FE01E80FF11D8581BB
S113017082B980914001FE01E80FF11D81818093D5
S11301807C0089EF90E00197F1F700C000008FEC4C
S113019080937A0028960FB6F894DEBF0FBECDBFC9
S11301A0DF91CF91089548B19C01207F4F70422B7D
S11301B048B9672B19F48E7F992701C0816088B9EB
S11301C087E893E10197F1F700C00000419A87E8BE
S11301D093E10197F1F700C0000041980895CF938F
S11301E0DF93EC0160E070E0DEDF60E070E0CE0100
S11301F024E0880F991F2A95E1F7D5DF8FE097E275
S11302000197F1F700C00000DF91CF9108952FE529
S11302108AEE90E0215080409040E1F700C0000059
S113022060E070E080E390E0BEDF87EA91E601974A
S1130230F1F700C0000060E070E080E390E0B3DF1D
S113024087E893E10197F1F700C0000060E070E0F7
S113025080E390E0A8DF87E893E10197F1F700C01D
S1130260000060E070E080E290E09DDF87E893E1C9
S11302700197F1F700C0000088E290E0B0DF88E069
S113028090E0ADDF8CE090E0AADF86E090E0A7DFAD
S113029082E090E0A4DF81E090E0A1CF009721F418
S11302A0CB0180589F4F05C0019721F4CB018054A6
S11302B09F4F95CF0895CF93DF93EC0161E070E0F9
S11302C072DF61E070E0CE0134E0880F991F3A9547
S11302D0E1F769DF89EF90E00197F1F700C00000D2
S11302E0DF91CF91089593EA94BD93EC94BD96E188
S11302F095B987BD0895E0EBF0E093EF908393EC1C
S113030090839FE49BB98093B300089583EF84BDE9
S113031082E085BD16BC17BC18BC089583EF80939A
S1130320B00082E08093B1001092B2001092B3004A
S11303301092B40008951F920F920FB60F921124D9
S11303400BB60F922F933F934F935F936F937F93CB
S11303508F939F93AF93BF93EF93FF93EADEFF9145
S1130360EF91BF91AF919F918F917F916F915F9129
S11303704F913F912F910F900BBE0F900FBE0F9096
S11303801F90189587EE85B92FE78DE89BE52150DE
S113039080409040E1F700C0000086EE85B90895E2
S11303A029B123708091650190916601880F991F8E
S11303B0880F991F820F911D9093660180936501A8
S11303C029B12C7030E035952795359527954091C6
S11303D0670150916801440F551F440F551F240FA6
S11303E0351F3093680120936701F901EF70FF27EF
S11303F0EE0FFF1FE05EFE4F2081318140916901C5
S113040050916A01FC01EF70FF27EE0FFF1FE050CF
S1130410FF4F80819181480F591F50936A01409387
S1130420690180916B0190916C01280F391F309301
S11304306C0120936B0108951F920F920FB60F92D7
S113044011240BB60F922F933F934F935F936F93A7
S11304507F938F939F93AF93BF93EF93FF93A0DF0B
S113046082E341DF87E347DFFF91EF91BF91AF91D3
S11304709F918F917F916F915F914F913F912F91B8
S11304800F900BBE0F900FBE0F901F901895809188
S113049044012AE0622FBCD190936401809144010D
S11304A0B7D1B6D1909363018091440134E6632FB0
S11304B0AFD1622FADD19093620180914301A8D155
S11304C09093610180914301A3D1A2D190936001E3
S11304D080914301632F9CD1622F9AD190935F0145
S11304E08091420195D190935E018091420190D117
S11304F08FD190935D0180914201632F89D1622F46
S113050087D190935C018091410182D190935B01EA
S1130510809141017DD17CD190935A018091410118
S1130520632F76D1622F74D19093590108950F935C
S11305301F93CF93DF938091690190916A012AE020
S113054030E0B90171D190935801809357018091A3
S1130550690190916A01B90167D1CB01B90164D1F4
S113056090935601809355018091690190916A019D
S113057004E610E0B80158D1CB01B90155D19093EC
S11305805401809353018091690190916A01C8EEEE
S1130590D3E0BE0149D1CB01B90146D190935201B8
S11305A0809351018091690190916A01E0E1F7E241
S11305B0BF013AD1CB01B90137D190935001809357
S11305C04F0180916B0190916C01B9012DD19093F1
S11305D04E0180934D0180916B0190916C01B901A2
S11305E023D1CB01B90120D190934C0180934B01CD
S11305F080916B0190916C01B80116D1CB01B901C6
S113060013D190934A018093490180916B01909199
S11306106C01BE0109D1CB01B90106D19093480107
S11306208093470180916B0190916C01BF01FCD0D4
S1130630CB01B901F9D09093460180934501DF9134
S1130640CF911F910F91089522DF71DF60E070E078
S113065080E090E023DE80914F0190915001C0969C
S11306602ADE8091510190915201C09624DE80913E
S1130670530190915401C0961EDE809155019091D2
S11306805601C09618DE8091570190915801C0968A
S113069012DE66E070E080E090E000DE80914501CB
S11306A090914601C09607DE8091470190914801E0
S11306B0C09601DE8091490190914A01C096FBDD0C
S11306C080914B0190914C01C096F5DD80914D01D4
S11306D090914E01C096EFDD60E070E081E090E023
S11306E0DDDD80915C0190E0C096E5DD80915D01E7
S11306F090E0C096E0DD80915E0190E0C096DBDD85
S113070064E070E081E090E0C9DD80915F0190E0F9
S1130710C096D1DD8091600190E0C096CCDD8091DF
S1130720610190E0C096C7DD68E070E081E090E090
S1130730B5DD8091620190E0C096BDDD80916301DA
S113074090E0C096B8DD8091640190E0C096B3DD7E
S11307506CE070E081E090E0A1DD8091590190E0CF
S1130760C096A9DD80915A0190E0C096A4DD8091E5
S11307705B0190E0C0969FDD60E070E080E090E077
S11307808DCD22E02093800085E08093810010923B
S113079085001092840080ED97E090938900809307
S11307A0880010928B0010928A0020936F000895A5
S11307B022E02093900020939100109295001092D3
S11307C094008AE090E090939900809398001092AE
S11307D09B0010929A00209371000895F89480EF82
S11307E081B912B889E184B986EE85B983EF87B9F6
S11307F018B880EC8AB98FE08BB909DD87DD8EDD0E
S1130800C0DFD6DF1A99FECFBDDD78941DDFFECFA1
S1130810991B79E004C0991F961708F0961B881F4E
S11308207A95C9F780950895AA1BBB1B51E107C0AF
S1130830AA1FBB1FA617B70710F0A61BB70B881F6C
S1130840991F5A95A9F780959095BC01CD010895FB
S1070850F894FFCF46
S11308540000FFFF01000000010000000000FFFF92
S1130864FFFF00000000010000000100FFFF000082
S113087400000100FFFF0000FFFF00000000010072
S1130884010000000000FFFF0000FFFF0100000062
S9030000FC
