S01900006D6963726F6D6F7573655F766572302E302E737265638E
S113000045C0000060C000005EC000005CC000008D
S11300105AC0000058C0000056C0000054C0000080
S113002052C0000050C000004EC000004CC0000090
S11300304AC00000B4C1000046C0000044C0000033
S113004042C0000040C000003EC000003CC00000B0
S11300503AC0000038C0000036C0000034C00000C0
S113006033C0000030C000002EC000002CC00000CF
S11300702AC0000028C0000026C0000024C00000E0
S11300800FC2000020C000001EC0000011241FBECB
S1130090CFEFD0E4DEBFCDBF11E0A0E0B1E0EEE4ED
S11300A0FCE000E00BBF02C007900D92A434B1073E
S11300B0D9F721E0A4E4B1E001C01D92AD36B20746
S11300C0E1F702D4C2C59CCF1F920F920FB60F92D4
S11300D011248F9380914401813059F028F08230AB
S11300E069F08330A1F40FC08091790080934601B8
S11300F00EC0809179008093470109C080917900F6
S11301008093480104C0809179008093450112B81E
S1130110809144018F5F8093440180914401843035
S113012011F4109244018F910F900FBE0F901F9005
S11301301895CF93DF93CDB7DEB728970FB6F89411
S1130140DEBF0FBECDBF80E88D8380E18E8380E269
S11301508F8390E49887898381E28A8382E28B8308
S113016083E28C8380914401FE01E80FF11D8581B7
S113017082B980914401FE01E80FF11D81818093D1
S11301807C0089EF90E00197F1F700C000008FEC4C
S113019080937A0028960FB6F894DEBF0FBECDBFC9
S11301A0DF91CF91089548B19C01207F4F70422B7D
S11301B048B9672B19F48E7F992701C0816088B9EB
S11301C087E893E10197F1F700C00000419A87E8BE
S11301D093E10197F1F700C0000041980895CF938F
S11301E0DF93EC0160E070E0DEDF60E070E0CE0100
S11301F024E0880F991F2A95E1F7D5DF8FE097E275
S11302000197F1F700C00000DF91CF9108952FE529
S11302108AEE90E0215080409040E1F700C0000059
S113022060E070E080E390E0BEDF87EA91E601974A
S1130230F1F700C0000060E070E080E390E0B3DF1D
S113024087E893E10197F1F700C0000060E070E0F7
S113025080E390E0A8DF87E893E10197F1F700C01D
S1130260000060E070E080E290E09DDF87E893E1C9
S11302700197F1F700C0000088E290E0B0DF88E069
S113028090E0ADDF8CE090E0AADF86E090E0A7DFAD
S113029082E090E0A4DF81E090E0A1CF009721F418
S11302A0CB0180589F4F05C0019721F4CB018054A6
S11302B09F4F95CF0895CF93DF93EC0161E070E0F9
S11302C072DF61E070E0CE0134E0880F991F3A9547
S11302D0E1F769DF89EF90E00197F1F700C00000D2
S11302E0DF91CF91089593EA94BD93EC94BD96E188
S11302F095B987BD0895E0EBF0E093EF908393E325
S113030090839FE89BB98093B400089583EF84BDE4
S113031082E085BD16BC17BC18BC089583EF80939A
S1130320B00082E08093B1001092B2001092B3004A
S11303301092B40008958F929F92AF92BF92CF9281
S1130340DF92EF92FF92BC01882777FD8095982F6A
S11303506DD36B017C012BE439E546E85BE3F2D312
S1130360A7019601EFD34B015C0127E836E149EB85
S11303705FE3C701B601E6D39B01AC01C501B4013B
S1130380BDD228EB3EED42E253E4B9D2FF90EF90A8
S1130390DF90CF90BF90AF909F908F9008951F9261
S11303A00F920FB60F9211240BB60F922F933F9317
S11303B04F935F936F937F938F939F93AF93BF9369
S11303C0EF93FF93B6DEFF91EF91BF91AF919F91B1
S11303D08F917F916F915F914F913F912F910F90EA
S11303E00BBE0F900FBE0F901F90189587EE85B926
S11303F02FE78DE89BE5215080409040E1F700C055
S1130400000086EE85B9089529B1237080916901B1
S113041090916A01880F991F880F991F820F911D6F
S113042090936A018093690129B12C7030E035956D
S113043027953595279540916B0150916C01440F98
S1130440551F440F551F240F351F30936C01209303
S11304506B01F901EF70FF27EE0FFF1FEC5DFE4FFC
S1130460208131814091020150910301FC01EF7020
S1130470FF27EE0FFF1FEC5FFE4F80819181480F35
S1130480591F509303014093020180910001909100
S11304900101280F391F30930101209300010895B1
S11304A01F920F920FB60F9211240BB60F92CF9298
S11304B0DF92EF92FF922F933F934F935F936F934B
S11304C07F938F939F93AF93BF93EF93FF93CF93B8
S11304D0DF9300D000D0CDB7DEB796DF8091450121
S11304E090E029DF9B01AC018091480190E02983D1
S11304F03A834B835C831FDF6B017C0129813A8142
S11305004B815C8160E070E082E992E4F7D12AE9F2
S113051039E949E95EE316D356D2862F825EEBDED3
S1130520A701960160E070E082E992E4E7D12AE94C
S113053039E949E95EE306D346D2862F825ED3DEEB
S11305400F900F900F900F90DF91CF91FF91EF914B
S1130550BF91AF919F918F917F916F915F914F91D7
S11305603F912F91FF90EF90DF90CF900F900BBEB3
S11305700F900FBE0F901F901895809148012AE0AC
S1130580622F43D390936801809148013ED33DD3B9
S1130590909367018091480134E6632F36D3622F2C
S11305A034D390936601809147012FD390936501D2
S11305B0809147012AD329D3909364018091470104
S11305C0632F23D3622F21D390936301809146013B
S11305D01CD3909362018091460117D316D3909354
S11305E0610180914601632F10D3622F0ED3909343
S11305F060018091450109D390935F018091450189
S113060004D303D390935E0180914501632FFDD2FF
S1130610622FFBD290935D0108950F931F93CF93A4
S1130620DF9380910201909103012AE030E0B90147
S1130630F8D290935C0180935B01809102019091C8
S11306400301B901EED2CB01B901EBD290935A0167
S113065080935901809102019091030104E610E016
S1130660B801DFD2CB01B901DCD290935801809359
S113067057018091020190910301C8EED3E0BE01BD
S1130680D0D2CB01B901CDD29093560180935501BC
S11306908091020190910301E0E1F7E2BF01C1D230
S11306A0CB01B901BED29093540180935301809140
S11306B0000190910101B901B4D290935201809349
S11306C051018091000190910101B901AAD2CB019D
S11306D0B901A7D29093500180934F0180910001FA
S11306E090910101B8019DD2CB01B9019AD29093A6
S11306F04E0180934D018091000190910101BE0152
S113070090D2CB01B9018DD290934C0180934B01CF
S11307108091000190910101BF0183D2CB01B90105
S113072080D290934A0180934901DF91CF911F9128
S11307300F91089522DF71DF60E070E080E090E0C7
S1130740ADDD8091530190915401C096B4DD809148
S1130750550190915601C096AEDD8091570190915C
S11307605801C096A8DD8091590190915A01C09614
S1130770A2DD80915B0190915C01C0969CDD66E0F6
S113078070E080E090E08ADD8091490190914A0117
S1130790C09691DD80914B0190914C01C0968BDD08
S11307A080914D0190914E01C09685DD80914F015D
S11307B090915001C0967FDD80915101909152013A
S11307C0C09679DD60E070E081E090E067DD8091C3
S11307D0600190E0C0966FDD8091610190E0C09669
S11307E06ADD8091620190E0C09665DD64E070E0AE
S11307F081E090E053DD8091630190E0C0965BDD81
S11308008091640190E0C09656DD8091650190E08E
S1130810C09651DD68E070E081E090E03FDD8091BA
S1130820660190E0C09647DD8091670190E0C09634
S113083042DD8091680190E0C0963DDD6CE070E09F
S113084081E090E02BDD80915D0190E0C09633DD86
S113085080915E0190E0C0962EDD80915F0190E072
S1130860C09629DD60E070E080E090E017CD22E0E2
S11308702093800085E0809381001092850010927F
S1130880840080ED97E09093890080938800109213
S11308908B0010928A0020936F00089522E0209329
S11308A090002093910010929500109294008AE099
S11308B090E0909399008093980010929B0010927E
S11308C09A00209371000895F89480EF81B912B8CA
S11308D089E184B986EE85B983EF87B918B880ECCD
S11308E08AB98FE08BB993DC11DD18DDC0DFD6DF68
S11308F01A99FECF7BDD78941DDFFECF5058BB27BD
S1130900AA270ED0E5C0D6D030F0DBD020F031F4E9
S11309109F3F11F41EF4CBC00EF4E095E7FBC1C079
S1130920E92FE7D080F3BA176207730784079507A6
S113093018F071F49EF5FFC00EF4E0950B2EBA2F5B
S1130940A02D0B01B90190010C01CA01A0011124D1
S1130950FF27591B99F0593F50F4503E68F11A167D
S1130960F040A22F232F342F4427585FF3CF46950E
S113097037952795A795F0405395C9F77EF41F1630
S1130980BA0B620B730B840BBAF09150A1F0FF0FFA
S1130990BB1F661F771F881FC2F70EC0BA0F621FE6
S11309A0731F841F48F4879577956795B795F795D6
S11309B09E3F08F0B3CF9395880F08F09927EE0F68
S11309C097958795089504D06894B111B5C008959A
S11309D098D088F09F5790F0B92F9927B751A0F07D
S11309E0D1F0660F771F881F991F1AF0BA95C9F7BF
S11309F012C0B13081F09FD0B1E008959CC0672F40
S1130A00782F8827B85F39F0B93FCCF3869577956E
S1130A106795B395D9F73EF4909580957095619557
S1130A207F4F8F4F9F4F0895E89409C097FB3EF482
S1130A3090958095709561957F4F8F4F9F4F992327
S1130A40A9F0F92F96E9BB279395F69587957795A5
S1130A506795B795F111F8CFFAF4BB0F11F460FF65
S1130A601BC06F5F7F4F8F4F9F4F16C0882311F0BD
S1130A7096E911C0772321F09EE8872F762F05C0D1
S1130A80662371F096E8862F70E060E02AF09A956C
S1130A90660F771F881FDAF7880F9695879597F961
S1130AA0089597F99F6780E870E060E008959FEFEC
S1130AB080EC089500240A941616170618060906F1
S1130AC0089500240A9412161306140605060895C0
S1130AD0092E0394000C11F4882352F0BB0F40F448
S1130AE0BF2B11F460FF04C06F5F7F4F8F4F9F4F88
S1130AF0089557FD9058440F551F59F05F3F71F00A
S1130B004795880F97FB991F61F09F3F79F0879570
S1130B100895121613061406551FF2CF4695F1DFF9
S1130B2008C0161617061806991FF1CF8695710589
S1130B30610508940895E894BB2766277727CB01BD
S1130B4097F908950BD0C4CFB5DF28F0BADF18F0B9
S1130B50952309F0A6CFABCF1124EECFCADFA0F3C3
S1130B60959FD1F3950F50E0551F629FF001729F3E
S1130B70BB27F00DB11D639FAA27F00DB11DAA1F5D
S1130B80649F6627B00DA11D661F829F2227B00DAA
S1130B90A11D621F739FB00DA11D621F839FA00D35
S1130BA0611D221F749F3327A00D611D231F849F85
S1130BB0600D211D822F762F6A2F11249F575040DC
S1130BC08AF0E1F088234AF0EE0FFF1FBB1F661F77
S1130BD0771F881F91505040A9F79E3F510570F030
S1130BE060CFAACF5F3FECF3983EDCF38695779510
S1130BF06795B795F795E7959F5FC1F7FE2B880F2B
S1130C00911D9695879597F90895991B79E004C0ED
S1130C10991F961708F0961B881F7A95C9F7809537
S1130C200895AA1BBB1B51E107C0AA1FBB1FA6172F
S1130C30B70710F0A61BB70B881F991F5A95A9F781
S1110C4080959095BC01CD010895F894FFCFE6
S1130C4E008000800000FFFF010000000100000092
S1130C5E0000FFFFFFFF0000000001000000010084
S1130C6EFFFF000000000100FFFF0000FFFF000077
S1130C7E00000100010000000000FFFF0000FFFF64
S1070C8E010000005D
S9030000FC
